:100000000C9461000C94BF000C94EC000C947300F1
:100010000C9473000C9473000C9473000C94730094
:100020000C9473000C9473000C9473000C94730084
:100030000C9473000C9473000C9473000C94730074
:100040000C9419010C9473000C9473000C947300BD
:100050000C9473000C9473000C9473000C94730054
:100060000C9473000C94730000000008000201005F
:100070000003040700000000000000000102040863
:100080001020408001020408102001020408102002
:10009000040404040404040402020202020203032E
:1000A00003030303000000002300260029000000D2
:1000B0000000250028002B0000000000240027007D
:1000C0002A0011241FBECFEFD8E0DEBFCDBF21E054
:1000D000A0E0B1E001C01D92AD30B207E1F70E948F
:1000E000AB020C94BB020C94000060E08DE00C9419
:1000F0004B0261E08DE00E94120262E087E00E9404
:10010000120262E083E00E94120242E050E065E7E2
:1001100070E081E00C949F0087E00E948102892BAF
:1001200051F461E08DE00E944B0268E873E180E0E9
:1001300090E00C94860160E08DE00C944B028230DC
:10014000E8F4E82FF0E0EE0FFF1FE050FF4F71835F
:100150006083813041F0809169008C7F842B809393
:100160006900E89A089580916900440F551F440F73
:10017000551F837F842B80936900E99A08951F920D
:100180000F920FB60F9211242F933F934F935F93CB
:100190006F937F938F939F93AF93BF93EF93FF934F
:1001A0008091000190910101892B29F0E0910001DB
:1001B000F09101010995FF91EF91BF91AF919F914E
:1001C0008F917F916F915F914F913F912F910F9000
:1001D0000FBE0F901F9018951F920F920FB60F929F
:1001E00011242F933F934F935F936F937F938F933C
:1001F0009F93AF93BF93EF93FF93809102019091F0
:100200000301892B29F0E0910201F0910301099586
:10021000FF91EF91BF91AF919F918F917F916F91DE
:100220005F914F913F912F910F900FBE0F901F90B4
:1002300018951F920F920FB60F9211242F933F9390
:100240008F939F93AF93BF93809105019091060187
:10025000A0910701B09108013091040123E0230F20
:100260002D3720F40196A11DB11D05C026E8230FEE
:100270000296A11DB11D2093040180930501909366
:100280000601A0930701B0930801809109019091A4
:100290000A01A0910B01B0910C010196A11DB11DA5
:1002A0008093090190930A01A0930B01B0930C0174
:1002B000BF91AF919F918F913F912F910F900FBE62
:1002C0000F901F9018953FB7F89480910901909175
:1002D0000A01A0910B01B0910C0126B5A89B05C0A5
:1002E0002F3F19F00196A11DB11D3FBF6627782F42
:1002F000892F9A2F620F711D811D911D42E0660F9B
:10030000771F881F991F4A95D1F70895CF92DF92E2
:10031000EF92FF92CF93DF936B017C010E94630108
:10032000EB01C114D104E104F10489F00E94BA0286
:100330000E9463016C1B7D0B683E734090F381E06B
:10034000C81AD108E108F108C851DC4FEACFDF91A3
:10035000CF91FF90EF90DF90CF900895789484B57F
:10036000826084BD84B5816084BD85B5826085BDB1
:1003700085B5816085BDEEE6F0E080818160808397
:10038000E1E8F0E01082808182608083808181607A
:100390008083E0E8F0E0808181608083E1EBF0E041
:1003A000808184608083E0EBF0E0808181608083E5
:1003B000EAE7F0E0808184608083808182608083CE
:1003C0008081816080838081806880831092C100F9
:1003D0000895833081F028F4813099F08230A1F0C3
:1003E00008958730A9F08830B9F08430D1F4809135
:1003F00080008F7D03C0809180008F778093800084
:10040000089584B58F7702C084B58F7D84BD08952B
:100410008091B0008F7703C08091B0008F7D809372
:10042000B0000895CF93DF9390E0FC01E458FF4FB4
:100430002491FC01E057FF4F8491882349F190E01B
:10044000880F991FFC01E854FF4FA591B491825584
:100450009F4FFC01C591D4919FB7611108C0F894DA
:100460008C91209582238C93888182230AC06230EC
:1004700051F4F8948C91322F309583238C9388819A
:10048000822B888304C0F8948C91822B8C939FBF1D
:10049000DF91CF9108950F931F93CF93DF931F9216
:1004A000CDB7DEB7282F30E0F901E859FF4F84912E
:1004B000F901E458FF4F1491F901E057FF4F0491FF
:1004C0000023C9F0882321F069830E94E901698132
:1004D000E02FF0E0EE0FFF1FE255FF4FA591B49122
:1004E0009FB7F8948C91611103C01095812301C0CE
:1004F000812B8C939FBF0F90DF91CF911F910F9114
:100500000895CF93DF93282F30E0F901E859FF4F8A
:100510008491F901E458FF4FD491F901E057FF4F5E
:10052000C491CC2391F081110E94E901EC2FF0E0FD
:10053000EE0FFF1FEC55FF4FA591B4912C912D2389
:1005400081E090E021F480E002C080E090E0DF9163
:10055000CF91089508950E94AE010E94AA020E94C0
:100560007900C0E0D0E00E948C002097E1F30E9467
:0A0570000000F9CF0895F894FFCFC2
:00000001FF
